:012002005A83
:03204800D22D2274
:042070009024002296
:0420780090240C2282
:102400002440245624622492254125191049324340
:102410005354415254001149324353544F50001207
:102420004932435055540013493243474554001430
:1024300057525346520015524453465200DF7FFF15
:102440001224BA7F04D296209606DFF9431804229C
:10245000C29653180022531800C29691BA91B9D26D
:10246000962274391200307401120030BB0058E912
:102470007E08C29591B933929691BA91B9DEF3C2B2
:102480009591B9D29691BA91B9309603431808C282
:1024900095227E08C29591B991BA91B9A29633DE80
:1024A000F3F87A00749A120030C29591B9E51813C6
:1024B000929691BA7443020030227F04D2952095FF
:1024C00005DFF94318022274071200307B2479DB00
:1024D000D2347406120030E40200304552524F529A
:1024E0003A204241442049324350555420415247FA
:1024F000554D454E54224552524F523A2042414486
:102500002053465220415247554D454E54227407A0
:102510001200307B2479F680B774391200307401D0
:10252000120030BB00E8E930E7E4FC75828875836F
:1025300025122569F87A00749A120030744302005B
:102540003074391200307401120030BB00C0E93021
:10255000E7BC890B74391200307401120030BB00E3
:10256000AD758286758325AC0BEC2480FC78002544
:10257000E0C835E0C825E0C835E0C82582F582E826
:102580003583F583EC738980E580228981E581229A
:102590008982E582228983E583228984E5842289F0
:1025A00085E585228986E586228987E587228988CF
:1025B000E588228989E58922898AE58A22898BE54D
:1025C0008B22898CE58C22898DE58D22898EE58E82
:1025D00022898FE58F228990E590228991E59122C9
:1025E0008992E592228993E593228994E594228940
:1025F00095E595228996E596228997E5972289980F
:10260000E598228999E59922899AE59A22899BE59C
:102610009B22899CE59C22899DE59D22899EE59EC1
:1026200022899FE59F2289A0E5A02289A1E5A12218
:1026300089A2E5A22289A3E5A32289A4E5A422898F
:10264000A5E5A52289A6E5A62289A7E5A72289A84E
:10265000E5A82289A9E5A92289AAE5AA2289ABE5EC
:10266000AB2289ACE5AC2289ADE5AD2289AEE5AE01
:102670002289AFE5AF2289B0E5B02289B1E5B12268
:1026800089B2E5B22289B3E5B32289B4E5B42289DF
:10269000B5E5B52289B6E5B62289B7E5B72289B88E
:1026A000E5B82289B9E5B92289BAE5BA2289BBE53C
:1026B000BB2289BCE5BC2289BDE5BD2289BEE5BE41
:1026C0002289BFE5BF2289C0E5C02289C1E5C122B8
:1026D00089C2E5C22289C3E5C32289C4E5C422892F
:1026E000C5E5C52289C6E5C62289C7E5C72289C8CE
:1026F000E5C82289C9E5C92289CAE5CA2289CBE58C
:10270000CB2289CCE5CC2289CDE5CD2289CEE5CE80
:102710002289CFE5CF2289D0E5D02289D1E5D12207
:1027200089D2E5D22289D3E5D32289D4E5D422897E
:10273000D5E5D52289D6E5D62289D7E5D72289D80D
:10274000E5D82289D9E5D92289DAE5DA2289DBE5DB
:10275000DB2289DCE5DC2289DDE5DD2289DEE5DEC0
:102760002289DFE5DF2289E0E5E02289E1E5E12257
:1027700089E2E5E22289E3E5E32289E4E5E42289CE
:10278000E5E5E52289E6E5E62289E7E5E72289E84D
:10279000E5E82289E9E5E92289EAE5EA2289EBE52B
:1027A000EB2289ECE5EC2289EDE5ED2289EEE5EE00
:1027B0002289EFE5EF2289F0E5F02289F1E5F122A7
:1027C00089F2E5F22289F3E5F32289F4E5F422891E
:1027D000F5E5F52289F6E5F62289F7E5F72289F88D
:1027E000E5F82289F9E5F92289FAE5FA2289FBE57B
:1027F000FB2289FCE5FC2289FDE5FD2289FEE5FE40
:062800002289FFE5FF2222
:00000001FF
